:020000040800F2
:100000000028002031220008C1210008C721000873
:10001000CD210008D3210008D921000800000000EC
:10002000000000000000000000000000DF210008C8
:10003000EB21000800000000F7210008032200085F
:100040007922000879220008792200087922000824
:100050007922000879220008792200087922000814
:100060007922000879220008792200087922000804
:1000700079220008792200087922000879220008F4
:1000800079220008792200087922000879220008E4
:1000900079220008792200087922000879220008D4
:1000A00079220008792200087922000879220008C4
:1000B00011220008792200080000000079220008BF
:1000C00079220008000000000000000079220008EA
:1000D00000000000792200087922000800000000DA
:1000E0007922000879220008792200080000000027
:1000F0000000000000000000000000000000000000
:0C01000000000000000000005FF808F1A3
:10010C0010B5054C237833B9044B13B10448AFF345
:10011C0000800123237010BD80000020000000002F
:10012C00A838000808B5034B1BB103490348AFF3CB
:10013C00008008BD0000000084000020A8380008E2
:10014C0080B500AF00F080FC00F0F2FB00BF80BD7A
:10015C0080B582B000AF78607B68092B00F2B28169
:10016C0001A252F823F000BF9D010008EF01000826
:10017C004102000893020008E5020008370300085A
:10018C0089030008DB0300082D0400087F04000825
:10019C0000224021CD4802F06CFB00228021CB488C
:1001AC0002F067FB00224FF48071C84802F061FB3B
:1001BC0000224FF40071C54802F05BFB00224FF4A3
:1001CC008061C24802F055FB00224FF40061BF4829
:1001DC0002F04FFB01224FF48051BC4802F049FB66
:1001EC0070E101224021B94802F043FB002280213A
:1001FC00B64802F03EFB00224FF48071B34802F087
:10020C0038FB01224FF40071B04802F032FB01229E
:10021C004FF48061AD4802F02CFB01224FF40061D9
:10022C00AA4802F026FB01224FF48051A74802F0A5
:10023C0020FB47E100224021A44802F01AFB0022D7
:10024C008021A24802F015FB01224FF480719F48D7
:10025C0002F00FFB00224FF400719C4802F009FBE6
:10026C0000224FF48061994802F003FB01224FF405
:10027C000061964802F0FDFA00224FF48051934839
:10028C0002F0F7FA1EE100224021904802F0F1FA48
:10029C00002280218D4802F0ECFA00224FF480718C
:1002AC008A4802F0E6FA00224FF40071874802F007
:1002BC00E0FA01224FF48061844802F0DAFA01225C
:1002CC004FF40061814802F0D4FA00224FF48051BF
:1002DC007E4802F0CEFAF5E0012240217B4802F084
:1002EC00C8FA00228021794802F0C3FA00224FF4A8
:1002FC008071764802F0BDFA01224FF40071734808
:10030C0002F0B7FA01224FF48061704802F0B1FAA2
:10031C0000224FF400616D4802F0ABFA00224FF45A
:10032C0080516A4802F0A5FACCE0002240216748CF
:10033C0002F09FFA01228021644802F09AFA00220E
:10034C004FF48071614802F094FA00224FF400716E
:10035C005E4802F08EFA01224FF480615B4802F095
:10036C0088FA00224FF40061584802F082FA002209
:10037C004FF48051554802F07CFAA3E00022402152
:10038C00524802F076FA01228021504802F071FAAC
:10039C0000224FF480714D4802F06BFA00224FF4AA
:1003AC0000714A4802F065FA00224FF48061474818
:1003BC0002F05FFA00224FF40061444802F059FA4F
:1003CC0000224FF48051414802F053FA7AE00022A7
:1003DC0040213E4802F04DFA002280213B4802F0B9
:1003EC0048FA00224FF48071384802F042FA012298
:1003FC004FF40071354802F03CFA01224FF4806151
:10040C00324802F036FA01224FF400612F4802F014
:10041C0030FA01224FF480512C4802F02AFA51E0B4
:10042C0000224021294802F024FA0022802127488A
:10043C0002F01FFA00224FF48071244802F019FADE
:10044C0000224FF40071214802F013FA00224FF4FD
:10045C0080611E4802F00DFA00224FF400611B4827
:10046C0002F007FA00224FF48051184802F001FA0A
:10047C0028E000224021154802F0FBF900228021DF
:10048C00124802F0F6F900224FF480710F4802F086
:10049C00F0F900224FF400710C4802F0EAF9012245
:1004AC004FF48061094802F0E4F900224FF4006136
:1004BC00064802F0DEF900224FF48051034802F0A6
:1004CC00D8F900BF00BF0837BD4680BD000C014005
:1004DC0080B582B000AF78607B68092B00F2B281E6
:1004EC0001A252F823F000BF1D0500086F0500089B
:1004FC00C10500081306000865060008B7060008C9
:10050C00090700085B070008AD070008FF07000893
:10051C0000224021CD4802F0ACF900228021CB48CA
:10052C0002F0A7F900224FF48071C84802F0A1F93B
:10053C0000224FF40071C54802F09BF900224FF4E1
:10054C008061C24802F095F900224FF40061BF4867
:10055C0002F08FF901224FF48051BC4802F089F966
:10056C0070E101224021B94802F083F90022802178
:10057C00B64802F07EF900224FF48071B34802F0C5
:10058C0078F901224FF40071B04802F072F901229F
:10059C004FF48061AD4802F06CF901224FF4006118
:1005AC00AA4802F066F901224FF48051A74802F0E4
:1005BC0060F947E100224021A44802F05AF90022D8
:1005CC008021A24802F055F901224FF480719F4816
:1005DC0002F04FF900224FF400719C4802F049F9E7
:1005EC0000224FF48061994802F043F901224FF444
:1005FC000061964802F03DF900224FF48051934877
:10060C0002F037F91EE100224021904802F031F946
:10061C00002280218D4802F02CF900224FF48071C9
:10062C008A4802F026F900224FF40071874802F044
:10063C0020F901224FF48061844802F01AF901225A
:10064C004FF40061814802F014F900224FF48051FC
:10065C007E4802F00EF9F5E0012240217B4802F0C1
:10066C0008F900228021794802F003F900224FF4A6
:10067C008071764802F0FDF801224FF40071734846
:10068C0002F0F7F801224FF48061704802F0F1F8A3
:10069C0000224FF400616D4802F0EBF800224FF499
:1006AC0080516A4802F0E5F8CCE00022402167480E
:1006BC0002F0DFF801228021644802F0DAF800220F
:1006CC004FF48071614802F0D4F800224FF40071AD
:1006DC005E4802F0CEF801224FF480615B4802F0D4
:1006EC00C8F800224FF40061584802F0C2F800220A
:1006FC004FF48051554802F0BCF8A3E00022402191
:10070C00524802F0B6F801228021504802F0B1F8AC
:10071C0000224FF480714D4802F0ABF800224FF4E8
:10072C0000714A4802F0A5F800224FF48061474856
:10073C0002F09FF800224FF40061444802F099F84F
:10074C0000224FF48051414802F093F87AE00022E5
:10075C0040213E4802F08DF8002280213B4802F0F7
:10076C0088F800224FF48071384802F082F8012298
:10077C004FF40071354802F07CF801224FF480618F
:10078C00324802F076F801224FF400612F4802F053
:10079C0070F801224FF480512C4802F06AF851E0B5
:1007AC0000224021294802F064F8002280212748C9
:1007BC0002F05FF800224FF48071244802F059F8DF
:1007CC0000224FF40071214802F053F800224FF43C
:1007DC0080611E4802F04DF800224FF400611B4866
:1007EC0002F047F800224FF48051184802F041F80B
:1007FC0028E000224021154802F03BF8002280211D
:10080C00124802F036F800224FF480710F4802F0C3
:10081C0030F800224FF400710C4802F02AF8012243
:10082C004FF48061094802F024F800224FF4006173
:10083C00064802F01EF800224FF48051034802F0E3
:10084C0018F800BF00BF0837BD4680BD0008014046
:10085C0080B582B000AF78607B68002B03D07B68DA
:10086C00012B12D023E000221021134802F001F8D2
:10087C0001222021104801F0FCFF104A7B6852F83D
:10088C0023301846FFF764FC11E0012210210A48BE
:10089C0001F0EFFF00222021074801F0EAFF074A90
:1008AC007B6852F823301846FFF752FC00BF00BF9C
:1008BC000837BD4680BD00BF000C01409C000020E5
:1008CC0080B582B000AF78607B68002B03D07B686A
:1008DC00012B12D023E000220221134801F0C9FFA2
:1008EC0001220421104801F0C4FF104A7B6852F821
:1008FC0023301846FFF7ECFD11E0012202210A48D3
:10090C0001F0B7FF00220421074801F0B2FF074AAB
:10091C007B6852F823301846FFF7DAFD00BF00BFA2
:10092C000837BD4680BD00BF000C0140A40000206C
:10093C0080B500AF3E4B1B68032B46D0032B64DC09
:10094C00012B02D0022B20D05FE03A4B1A683A4BB5
:10095C001B68D31A394A82FB03129210DB17D31A85
:10096C00374A1360334B1A68334B1B68D11A334B1D
:10097C0083FB01239A10CB17D21A13469B00134406
:10098C005B00CA1A2E4B5A603FE02A4B5A682A4B1E
:10099C001B68D31A294A82FB03129210DB17D31A55
:1009AC00274A1360234B5A68234B1B68D11A234BDD
:1009BC0083FB01239A10CB17D21A13469B001344C6
:1009CC005B00CA1A1E4B5A601FE01A4B9A681A4BEE
:1009DC001B68D31A194A82FB03129210DB17D31A25
:1009EC00174A1360134B9A68134B1B68D11A134B9D
:1009FC0083FB01239A10CB17D21A13469B00134486
:100A0C005B00CA1A0E4B5A6000BF0E4B1B68012BC1
:100A1C0002DD0C4B00221A600A4B1B681846FFF7CC
:100A2C0017FF084B1B680133064A136000BF80BDDB
:100A3C006C00002050000020C8000020676666662D
:100A4C009C000020B000002080B500AF754B1B68E7
:100A5C00013B062B00F2D28001A252F823F000BF1A
:100A6C00890A0008C90A0008090B0008090C0008CB
:100A7C00490B0008890B0008C90B00086A4B1A685F
:100A8C006A4B1B68D31A6A4A82FB03129210DB175B
:100A9C00D31A684A1360644B1A68644B1B68D11AEA
:100AAC00634B83FB01239A10CB17D21A13469B007E
:100ABC0013445B00CA1A5F4B5A609FE05A4B5A684A
:100ACC005A4B1B68D31A5A4A82FB03129210DB173B
:100ADC00D31A584A1360544B5A68544B1B68D11A9A
:100AEC00534B83FB01239A10CB17D21A13469B004E
:100AFC0013445B00CA1A4F4B5A607FE04A4B9A680A
:100B0C004A4B1B68D31A4A4A82FB03129210DB171A
:100B1C00D31A484A1360444B9A68444B1B68D11A49
:100B2C00434B83FB01239A10CB17D21A13469B001D
:100B3C0013445B00CA1A3F4B5A605FE03E4B1B6884
:100B4C003B4A82FB03129210DB17D31A394A13600B
:100B5C00394B1968364B83FB01239A10CB17D21AE9
:100B6C0013469B0013445B00CA1A324B5A60334B3A
:100B7C0000221A60314B02225A603FE02E4B5B6818
:100B8C002B4A82FB03129210DB17D31A294A1360EB
:100B9C00294B5968264B83FB01239A10CB17D21A89
:100BAC0013469B0013445B00CA1A224B5A60234B1A
:100BBC0000221A60214B03225A601FE01E4B9B68D7
:100BCC001B4A82FB03129210DB17D31A194A1360CB
:100BDC00194B9968164B83FB01239A10CB17D21A29
:100BEC0013469B0013445B00CA1A124B5A60134BFA
:100BFC0000221A60114B04225A6000BF104B1B6874
:100C0C00012B02DD0E4B00221A600D4B1B6818469F
:100C1C00FFF756FE0A4B1B680133094A136000BFED
:100C2C0080BD00BF680000205C000020C4000020D4
:100C3C0067666666A4000020CC0000209C000020A3
:100C4C00AC00002080B400AF064B1B68012B04D114
:100C5C00044B00221A60012300E000231846BD4615
:100C6C0080BC7047B400002080B400AF064B1B68FA
:100C7C00012B04D1044B00221A60012300E0002355
:100C8C001846BD4680BC7047B800002080B400AF49
:100C9C00064B1B68012B04D1044B00221A60012364
:100CAC0000E000231846BD4680BC7047BC00002005
:100CBC0080B400AF064B1B68012B04D1044B0022FF
:100CCC001A60012300E000231846BD4680BC704723
:100CDC00C000002080B582B000AF00237B60394A91
:100CEC007B6852F8232038497B6841F82320374A27
:100CFC007B6852F8232033497B6841F823204FF45A
:100D0C000051334801F09EFD034619462F4A7B687B
:100D1C0042F823102C4A7B6852F8232029497B681F
:100D2C0051F823309A4249D1264A7B6852F8232045
:100D3C0026497B6851F823309A423FD1254A7B687B
:100D4C0052F8232021497B6851F823309A4217D05E
:100D5C001E4A7B6852F823201E497B6841F82320E9
:100D6C001A4A7B6852F82330002B27D11A4B0122E8
:100D7C001A601A4A7B684FF4967142F823101DE0F2
:100D8C00124A7B6852F82330002B17D1134A7B6828
:100D9C0052F823305A1E11497B6841F823200F4A20
:100DAC007B6852F82330002B08D10B4B01221A60C0
:100DBC000A4A7B684FF4967142F8231000BF08373B
:100DCC00BD4680BD10000020000000202000002047
:100DDC000008014030000020B4000020400000203A
:100DEC0080B582B000AF01237B60384A7B6852F833
:100DFC00232037497B6841F82320364A7B6852F818
:100E0C00232032497B6841F823204FF4804132483B
:100E1C0001F018FD034619462E4A7B6842F8231050
:100E2C002B4A7B6852F8232028497B6851F82330E1
:100E3C009A4247D1254A7B6852F8232025497B6882
:100E4C0051F823309A423DD1244A7B6852F8232032
:100E5C0020497B6851F823309A4216D01D4A7B6892
:100E6C0052F823201D497B6841F82320194A7B68DE
:100E7C0052F82330002B25D1194B01221A60194A44
:100E8C007B68322142F823101CE0124A7B6852F82E
:100E9C002330002B16D1134A7B6852F823305A1E8C
:100EAC0010497B6841F823200E4A7B6852F82330A6
:100EBC00002B07D10A4B01221A600A4A7B683221A7
:100ECC0042F8231000BF0837BD4680BD100000203B
:100EDC00000000202000002000080140300000200D
:100EEC00B80000204000002080B582B000AF022383
:100EFC007B60384A7B6852F8232037497B6841F87D
:100F0C002320364A7B6852F8232032497B6841F80B
:100F1C0023204FF40041324801F094FC034619465B
:100F2C002E4A7B6842F823102B4A7B6852F8232008
:100F3C0028497B6851F823309A4247D1254A7B686F
:100F4C0052F8232025497B6851F823309A423DD131
:100F5C00244A7B6852F8232020497B6851F82330BF
:100F6C009A4216D01D4A7B6852F823201D497B6893
:100F7C0041F82320194A7B6852F82330002B25D1E5
:100F8C00194B01221A60194A7B68322142F823104E
:100F9C001CE0124A7B6852F82330002B16D1134AFE
:100FAC007B6852F823305A1E10497B6841F8232085
:100FBC000E4A7B6852F82330002B07D10A4B0122D2
:100FCC001A600A4A7B68322142F8231000BF0837A6
:100FDC00BD4680BD10000020000000202000002035
:100FEC000008014030000020BC0000204000002020
:100FFC0080B582B000AF03237B60394A7B6852F81E
:10100C00232038497B6841F82320374A7B6852F803
:10101C00232033497B6841F823200121334801F018
:10102C0011FC03461946304A7B6842F823102D4ABE
:10103C007B6852F823202A497B6851F823309A4266
:10104C0049D1274A7B6852F8232027497B6851F8FD
:10105C0023309A423FD1264A7B6852F823202249FA
:10106C007B6851F823309A4217D01F4A7B6852F89C
:10107C0023201F497B6841F823201B4A7B6852F8C8
:10108C002330002B27D11B4B01221A601A4A7B6894
:10109C004FF4967142F823101DE0134A7B6852F806
:1010AC002330002B17D1144A7B6852F823305A1E78
:1010BC0011497B6841F823200F4A7B6852F8233092
:1010CC00002B08D10B4B01221A600B4A7B684FF4A2
:1010DC00967142F8231000BF0837BD4680BD00BF93
:1010EC00100000200000002020000020000C014017
:1010FC0030000020C00000204000002080B500AF70
:10110C0000F004F800F084F800BF80BD80B500AF9B
:10111C003B4B1B68032B48D0032B67DC012B02D005
:10112C00022B21D062E001220421364801F0A1FB00
:10113C0000220821334801F09CFB00221021314889
:10114C0001F097FB304B1B6801332F4A13602F4B78
:10115C001A682D4B1B689A424AD12B4B00221A60FD
:10116C00274B03221A6043E000220421254801F09A
:10117C0080FB01220821234801F07BFB0022102177
:10118C00204801F076FB204B1B6801331E4A13608C
:10119C001E4B5A681C4B1B689A422BD11A4B0022CF
:1011AC001A60174B01221A6024E000220421154812
:1011BC0001F05FFB00220821124801F05AFB0122CA
:1011CC001021104801F055FB0F4B1B6801330E4AE0
:1011DC0013600E4B9A680C4B1B689A420CD10A4B4D
:1011EC0000221A60064B02221A6005E000BF04E0E0
:1011FC0000BF02E000BF00E000BF00BF80BD00BF29
:10120C006800002000080140C40000205C000020A1
:10121C0080B500AF3F4B1B68032B4ED0032B70DC0B
:10122C00012B02D0022B24D06BE001224FF4005191
:10123C00394801F01EFB00224FF48041364801F082
:10124C0018FB00224FF40041334801F012FB334BE2
:10125C001B680133314A1360314B1A682F4B1B68E2
:10126C009A4250D12D4B00221A602A4B03221A604D
:10127C0049E000224FF40051274801F0FAFA01220C
:10128C004FF48041244801F0F4FA00224FF400415D
:10129C00214801F0EEFA214B1B6801331F4A136001
:1012AC001F4B5A681D4B1B689A422ED11B4B0022B8
:1012BC001A60184B01221A6027E000224FF40051EB
:1012CC00154801F0D6FA00224FF48041124801F083
:1012DC00D0FA01224FF400410F4801F0CAFA0F4B2B
:1012EC001B6801330D4A13600D4B9A680B4B1B683E
:1012FC009A420CD1094B00221A60064B02221A604A
:10130C0005E000BF04E000BF02E000BF00E000BF4A
:10131C0000BF80BD6C000020000C0140C800002004
:10132C005000002080B584B000AFA74B1B68013B78
:10133C00062B00F20C8401A252F823F0651300086E
:10134C00D7130008491400085B1B0008BB140008E5
:10135C0023160008BF170008FFF774FC0346012B87
:10136C0040F0F0830023FB600AE0984AFB6852F8D7
:10137C0023209749FB6841F82320FB680133FB606D
:10138C00FB68022BF1DD934B00221A60924B00227A
:10139C001A60924B00221A60914B00221A60914BFA
:1013AC0000221A60904B00221A60904B00221A60A7
:1013BC008F4B00221A608F4B00221A60824B052241
:1013CC001A608D4B05221A60BCE3FFF73BFC034609
:1013DC00012B40F0B9830023BB600AE07B4ABB6859
:1013EC0052F823207A49BB6841F82320BB680133AB
:1013FC00BB60BB68022BF1DD764B00221A60764B8A
:10140C0000221A60754B00221A60754B00221A607C
:10141C00744B00221A60744B00221A60734B00222A
:10142C001A60734B00221A60724B00221A60664BD2
:10143C0005221A60704B05221A6085E3FFF702FC47
:10144C000346012B40F0828300237B600AE05F4A55
:10145C007B6852F823205E497B6841F823207B6827
:10146C0001337B607B68022BF1DD5A4B00221A6042
:10147C00594B00221A60594B00221A60584B00221B
:10148C001A60584B00221A60574B00221A60574BB7
:10149C0000221A60564B00221A60564B00221A602A
:1014AC00494B05221A60544B05221A604EE3494BF6
:1014BC001B68002B0DD1474B01221A60012204211D
:1014CC004E4801F0D6F901224FF400514C4801F07E
:1014DC00D0F90421494801F0E4F94FF4005148488F
:1014EC0001F0DFF900220821444801F0C2F9002282
:1014FC004FF48041424801F0BCF9002210213F48D2
:10150C0001F0B7F900224FF400413D4801F0B1F968
:10151C00FFF798FB0346012B08D12B4B06221A60D0
:10152C00354B06221A60374B14221A60FFF79CFBCE
:10153C000346012B16D12A4B01221A60244B1B683F
:10154C00632B09DC224B1B68002B05DD204B1B6831
:10155C0001331F4A136002E01D4B01221A60294B14
:10156C0014221A60FFF792FB0346012B16D11F4B76
:10157C0001221A60164B1B68632B09DC144B1B6889
:10158C00002B05DD124B1B68013B114A136002E076
:10159C000F4B01221A601B4B14221A60FFF788FBB9
:1015AC000346012B05D1084B01221A60124B032272
:1015BC001A60144B1B68002B26DD124B1B68013B79
:1015CC00104A1360C3E200BF680000205C000020DA
:1015DC00CC000020D8000020DC000020E00000201F
:1015EC00E4000020E8000020EC000020F0000020C7
:1015FC00F4000020F80000206C00002000080140DE
:10160C00000C014070000020A14B01221A60A14B7C
:10161C0003221A609BE2A04B1B68002B0DD19E4B42
:10162C0001221A60012208219C4801F022F90122B2
:10163C004FF480419A4801F01CF90821974801F0B9
:10164C0030F94FF48041964801F02BF90022042127
:10165C00924801F00EF900224FF40051904801F02D
:10166C0008F9002210218D4801F003F900224FF4F3
:10167C0000418B4801F0FDF8FFF7E4FA0346012B1B
:10168C0008D1834B07221A60824B07221A60854BC4
:10169C0014221A60FFF7E8FA0346012B16D1824B8D
:1016AC0001221A60814B5B68632B09DC7F4B5B6802
:1016BC00002B05DD7D4B5B6801337C4A536002E0F7
:1016CC007A4B01225A60774B14221A60FFF7DEFA2C
:1016DC000346012B16D1764B01221A60734B5B68C3
:1016EC00632B09DC714B5B68002B05DD6F4B5B6872
:1016FC00013B6E4A536002E06C4B01225A60694B0D
:10170C0014221A60FFF7D4FA0346012B40D1694B1F
:10171C001B68012B03D0684B1B68012B32D1624B29
:10172C001B68012B03D0624B1B68012B2AD15F4B2A
:10173C001A685E4B5B68D31A5C4A93605B4B5A68C1
:10174C005A4B9B689A421DDA584B5A68574B1B6888
:10175C009A4217DA554B1B68584A1360534B1B6857
:10176C00574A1360514B5B68544A53604F4B5B684C
:10177C00534A53604D4B9B68504A93604B4B9B684C
:10178C004F4A9360424B01221A60424B03221A606B
:10179C00444B1B68002B05DD424B1B68013B414A47
:1017AC001360D4E13A4B01221A603A4B03221A60BF
:1017BC00CDE1444B1B68002B0DD1424B01221A602A
:1017CC0001221021354801F054F801224FF4004158
:1017DC00334801F04EF81021304801F062F84FF414
:1017EC0000412F4801F05DF8002204212B4801F044
:1017FC0040F800224FF40051294801F03AF8002239
:10180C000821264801F035F800224FF48041244885
:10181C0001F02FF8FFF716FA0346012B05D11C4BEC
:10182C0001221A601B4B03221A60FFF71DFA0346B4
:10183C00012B16D1244B01221A601C4B9B68632B85
:10184C0009DC1A4B9B68002B05DD184B9B68013398
:10185C00164A936002E0154B01229A60114B142238
:10186C001A60FFF713FA0346012B37D1174B0122ED
:10187C001A600E4B9B68632B2ADC0C4B9B68002B6D
:10188C0026DD0A4B9B68013B084A936023E000BFAE
:10189C00680000206C000020DC00002000080140E3
:1018AC00000C014070000020E8000020CC0000205B
:1018BC00F4000020E4000020F00000205C00002078
:1018CC0050000020E0000020EC000020F800002078
:1018DC00864B01229A60864B14221A60FFF7E8F9B6
:1018EC000346012B40F01D81824B1B68012B03D05A
:1018FC00814B1B68012B35D1804B1B68012B03D00E
:10190C007F4B1B68012B2DD1784B1A68774B5B688A
:10191C00D31A764A9360754B5A68744B9B689A42FB
:10192C0080F2E080714B5A68704B1B689A4280F2CF
:10193C00D9806E4B1B68734A13606C4B1B68724AE0
:10194C0013606A4B5B686F4A5360684B5B686E4A06
:10195C005360664B9B686B4A9360644B9B686A4A06
:10196C009360BFE0634B1B68012B03D0624B1B6879
:10197C00012B35D1654B1B68012B03D0644B1B68C5
:10198C00012B2DD1594B1A68584B9B68D31A574AC7
:10199C005360564B5A68554B9B689A4280F2A48010
:1019AC00524B5A68514B1B689A4280F29D804F4BA8
:1019BC001B68544A13604D4B1B68534A13604B4BC6
:1019CC005B68504A5360494B5B684F4A5360474BC6
:1019DC009B684C4A9360454B9B684B4A936083E0F1
:1019EC00464B1B68012B03D0454B1B68012B33D195
:1019FC00464B1B68012B03D0454B1B68012B2BD18D
:101A0C003A4B5A68394B9B681344384A1360374B2E
:101A1C005A68364B9B689A427CDA344B5A68334B83
:101A2C001B689A4276DA314B1B68364A13602F4B8F
:101A3C001B68354A13602D4B5B68324A53602B4B45
:101A4C005B68314A5360294B9B682E4A9360274B45
:101A5C009B682D4A93605DE0264B1B68012B03D0DD
:101A6C00254B1B68012B56D1244B1B68012B03D033
:101A7C00234B1B68012B4ED1244B1B68012B03D02D
:101A8C00234B1B68012B46D1184B5A68174B9B688C
:101A9C009A4240DA154B5A68144B1B689A423ADA50
:101AAC00124B1A68114B5968104B9B680B449A42A5
:101ABC0031D10E4B1B68134A13600C4B1B68124A36
:101ACC0013600A4B5B680F4A5360084B5B680E4A05
:101ADC005360064B9B680B4A9360044B9B680A4A05
:101AEC00936018E000BF16E000BF14E0CC000020AB
:101AFC0070000020E4000020F0000020E80000202E
:101B0C00F40000205C00002050000020EC000020BD
:101B1C00F800002000BF104B01221A600F4B03226B
:101B2C001A600F4B1B68002B05DD0D4B1B68013B2E
:101B3C000B4A13600BE0084B01221A60074B03227F
:101B4C001A6004E000BF02E000BF00E000BF00BF6D
:101B5C001037BD4680BD00BF680000206C0000201F
:101B6C007000002080B500AF00F082FB00F04AF856
:101B7C0000F0D0F800F082F800F056F9184801F0A7
:101B8C00D5FA0A220021174800F024FA0A22002173
:101B9C00154800F01FFA0A220021144800F01AFA26
:101BAC000A220021124800F015FA4FF47A72002133
:101BBC00104800F00FFA4FF4FA7200210E4800F0B2
:101BCC0009FA4FF47A7200210C4800F003FA4FF432
:101BDC00FA7200210A4800F0FDF900F0AFF9FCE7B9
:101BEC0000010020E10C0008ED0D0008F50E0008C6
:101BFC00FD0F0008151E000831130008091100081C
:101C0C004D01000880B590B000AF07F118032822F1
:101C1C000021184601F03AFE3B1D00221A605A6062
:101C2C009A60DA601A610223BB610123BB62102344
:101C3C00FB6200237B6307F11803184600F04AFE91
:101C4C000346002B01D000F0E9F80F237B60002342
:101C5C00BB600023FB6000233B6100237B613B1DC9
:101C6C000021184601F0B6F80346002B01D000F015
:101C7C00D5F800BF4037BD4680BD000080B586B0AA
:101C8C0000AF07F1080300221A605A609A60DA600C
:101C9C003B4600221A605A601D4B4FF080421A607E
:101CAC001B4B41F63F725A60194B00229A60184B3D
:101CBC000922DA60164B00221A61154B00229A6138
:101CCC00134801F0E3F90346002B01D000F0A6F80D
:101CDC004FF48053BB6007F1080319460C4801F020
:101CEC0061FB0346002B01D000F098F800233B6009
:101CFC0000237B603B461946054801F039FD03463D
:101D0C00002B01D000F08AF800BF1837BD4680BD0B
:101D1C000001002080B586B000AF07F10803002257
:101D2C001A605A609A60DA602F4B9B692E4A43F016
:101D3C00040393612C4B9B6903F004037B607B6869
:101D4C00294B9B69284A43F008039361264B9B69F6
:101D5C0003F008033B603B68002241F6FC7123480A
:101D6C0000F087FD00224FF6F671214800F081FD4E
:101D7C0041F6FC73BB600123FB6000233B61022333
:101D8C007B6107F108031946184800F0E1FB0123B9
:101D9C00BB600023FB6001233B6107F1080319467C
:101DAC00134800F0D5FB4FF6F673BB600123FB60C4
:101DBC0000233B6102237B6107F1080319460C48A1
:101DCC0000F0C6FB4FF46043BB600023FB600123B3
:101DDC003B6107F108031946044800F0B9FB00BF4A
:101DEC001837BD4680BD00BF0010024000080140FE
:101DFC00000C014080B582B000AF786000F02EF886
:101E0C0000BF0837BD4680BD80B500AF2021024819
:101E1C0000F047FD00BF80BD0008014080B400AF5A
:101E2C0072B600BFFEE7000080B582B000AF0023A1
:101E3C00FB7106E0FB79184600F01EF9FB790133C3
:101E4C00FB71FB79272BF5D9034B00221A7000BFCD
:101E5C000837BD4680BD00BFFC00002080B483B0B5
:101E6C0000AF0023FB715EE0FA79334913469B0007
:101E7C0013449B000B441B68002B51D0FA792E495C
:101E8C0013469B0013449B000B4404331B68002B2C
:101E9C0032D1FA79284913469B0013449B000B441A
:101EAC000C331B78FA790133D8B2234913469B00C3
:101EBC0013449B000B440C3302461A70FA791E49EA
:101ECC0013469B0013449B000B4408331B68002BE8
:101EDC0026D0F979FA7918480B469B000B449B00E5
:101EEC00034408331968144813469B0013449B00A1
:101EFC0003440433196013E0FA790F4913469B002D
:101F0C0013449B000B4404331B68FA79A3F10A01B8
:101F1C00094813469B0013449B0003440433196087
:101F2C00FB790133FB71FB79272B9DD900BF00BFD7
:101F3C000C37BD4680BC70474801002080B582B08C
:101F4C0000AF0023FB713AE0FA79214913469B005C
:101F5C0013449B000B440C331B78002B2CD0FA79C8
:101F6C001B4913469B0013449B000B441B6898476A
:101F7C00FA79174913469B0013449B000B440C330E
:101F8C001B78FA79013BD8B2114913469B001344D4
:101F9C009B000B440C3302461A70FA790C49134619
:101FAC009B0013449B000B4408331B68002B03D18C
:101FBC00FB79184600F060F8FB790133FB71FB7973
:101FCC00272BC1D900BF00BF0837BD4680BD00BF5D
:101FDC004801002080B487B000AFF860B9607A6027
:101FEC000023FB7502E0FB7D0133FB75FA7D204974
:101FFC0013469B0013449B000B441B68002B02D020
:10200C00FB7D272BEFD9FB7D282B04D1194B01220B
:10201C001A70282327E0FA7D154913469B001344B8
:10202C009B000B44FA681A60FA7D114913469B0019
:10203C0013449B000B440433BA681A60FA7D0C49B4
:10204C0013469B0013449B000B4408337A681A60B8
:10205C00FA7D074913469B0013449B000B440C3339
:10206C0000221A70FB7D18461C37BD4680BC704799
:10207C0048010020FC00002080B485B000AF7860DF
:10208C001F497A6813469B0013449B000B441B6842
:10209C00002B05D11B4B02221A700023FB7301E0AD
:1020AC000123FB7316497A6813469B0013449B006B
:1020BC000B4400221A6012497A6813469B001344A1
:1020CC009B000B44043300221A600D497A681346B6
:1020DC009B0013449B000B44083300221A600849F0
:1020EC007A6813469B0013449B000B440C3300226C
:1020FC001A70FB7B18461437BD4680BC704700BF76
:10210C0048010020FC00002080B485B000AF154BC6
:10211C009B69144A43F001039361124B9B6903F0D2
:10212C000103BB60BB680F4BDB690E4A43F0805365
:10213C00D3610C4BDB6903F080537B607B680A4BEB
:10214C005B68FB60FB6823F0E063FB60FB6843F0BB
:10215C008063FB60044AFB68536000BF1437BD46C4
:10216C0080BC7047001002400000014080B584B074
:10217C0000AF78607B681B68B3F1804F13D10C4BB8
:10218C00DB690B4A43F00103D361094BDB6903F0B4
:10219C000103FB60FB68002200211C2000F0A1F968
:1021AC001C2000F0BAF900BF1037BD4680BD00BF3F
:1021BC000010024080B400AFFEE780B400AFFEE731
:1021CC0080B400AFFEE780B400AFFEE780B400AF90
:1021DC00FEE780B400AF00BFBD4680BC704780B442
:1021EC0000AF00BFBD4680BC704780B400AF00BFDD
:1021FC00BD4680BC704780B500AF00F07FF800BFD3
:10220C0080BD000080B500AF024800F0DBFF00BFCE
:10221C0080BD00BF0001002080B400AF00BFBD46F0
:10222C0080BC7047FFF7F8FF0B480C490C4A0023A1
:10223C0002E0D458C4500433C4188C42F9D3094A70
:10224C00094C002301E013600432A242FBD301F0DD
:10225C00F9FAFFF787FC704700000020800000208F
:10226C00EC380008800000206C040020FEE7000021
:10227C0080B500AF084B1B68074A43F0100313608E
:10228C00032000F023F90F2000F008F8FFF73CFFC3
:10229C000023184680BD00BF0020024080B582B0EC
:1022AC0000AF7860124B1A68124B1B7819464FF42A
:1022BC007A73B3FBF1F3B2FBF3F3184600F03BF97E
:1022CC000346002B01D001230EE07B680F2B0AD8AC
:1022DC00002279684FF0FF3000F003F9064A7B6862
:1022EC001360002300E0012318460837BD4680BD6B
:1022FC00740000207C0000207800002080B400AF27
:10230C00054B1B781A46054B1B681344034A136094
:10231C0000BFBD4680BC70477C00002068040020D4
:10232C0080B400AF024B1B681846BD4680BC70479A
:10233C006804002080B485B000AF78607B6803F03F
:10234C000703FB600C4BDB68BB60BA684FF6FF03FE
:10235C001340BB60FB681A02BB68134343F0BF63B6
:10236C0043F40033BB60044ABB68D36000BF14372E
:10237C00BD4680BC704700BF00ED00E080B400AFEC
:10238C00044BDB681B0A03F007031846BD4680BCF0
:10239C00704700BF00ED00E080B483B000AF03468F
:1023AC00FB7197F90730002B0BDBFB7903F01F0255
:1023BC00064997F907305B09012000FA02F241F84F
:1023CC00232000BF0C37BD4680BC704700E100E005
:1023DC0080B483B000AF03463960FB7197F90730C6
:1023EC00002B0ADB3B68DAB20C4997F90730120173
:1023FC00D2B20B4483F800230AE03B68DAB20849F6
:10240C00FB7903F00F03043B1201D2B20B441A7692
:10241C0000BF0C37BD4680BC704700BF00E100E038
:10242C0000ED00E080B489B000AFF860B9607A606C
:10243C00FB6803F00703FB61FB69C3F10703042B83
:10244C0028BF0423BB61FB690433062B02D9FB694B
:10245C00033B00E000237B614FF0FF32BB6902FAC3
:10246C0003F3DA43BB681A407B699A404FF0FF31A3
:10247C007B6901FA03F3D9437B680B40134318467D
:10248C002437BD4680BC704780B582B000AF786001
:10249C007B68013BB3F1807F01D301230FE00A4A33
:1024AC007B68013B53600F214FF0FF30FFF790FF2B
:1024BC00054B00229A60044B07221A600023184631
:1024CC000837BD4680BD00BF10E000E080B582B08B
:1024DC0000AF78607868FFF72DFF00BF0837BD4666
:1024EC0080BD80B586B000AF0346B9607A60FB73DF
:1024FC0000237B61FFF742FF78617A68B9687869DD
:10250C00FFF790FF024697F90F3011461846FFF778
:10251C005FFF00BF1837BD4680BD80B582B000AFED
:10252C000346FB7197F907301846FFF735FF00BFDC
:10253C000837BD4680BD80B582B000AF7860786842
:10254C00FFF7A2FF034618460837BD4680BD0000C2
:10255C0080B48BB000AF7860396000237B620023BD
:10256C003B6248E101227B6A02FA03F3FB613B68A0
:10257C001B68FA691340BB61BA69FB699A4240F067
:10258C0037813B685B68A34A93425ED0A14A934271
:10259C0075D8A14A934258D09F4A93426FD89F4A0C
:1025AC00934252D09D4A934269D89D4A93424CD053
:1025BC009B4A934263D89B4A934246D0994A934292
:1025CC005DD8122B2AD8122B59D801A252F823F01D
:1025DC0057260008312600084326000885260008E7
:1025EC008B2600088B2600088B2600088B260008FB
:1025FC008B2600088B2600088B2600088B260008EB
:10260C008B2600088B2600088B2600088B260008DA
:10261C008B260008392600084D260008824A934272
:10262C0013D02CE03B68DB683B6229E03B68DB683D
:10263C0004333B6224E03B68DB6808333B621FE0F9
:10264C003B68DB680C333B621AE03B689B68002BF1
:10265C0002D104233B6213E03B689B68012B05D13C
:10266C0008233B627B68FA691A6109E008233B6224
:10267C007B68FA695A6103E000233B6200E000BF0B
:10268C00BB69FF2B01D87B6801E07B6804337B615D
:10269C00BB69FF2B02D87B6A9B0002E07B6A083B7C
:1026AC009B003B617B691A680F213B6901FA03F3BC
:1026BC00DB431A40396A3B6901FA03F31A437B691D
:1026CC001A603B685B6803F08053002B00F090802D
:1026DC00564B9B69554A43F001039361534B9B69DD
:1026EC0003F00103BB60BB68514A7B6A9B08023351
:1026FC0052F82330FB607B6A03F003039B000F222C
:10270C0002FA03F3DB43FA681340FB607B68494A27
:10271C0093420DD07B68484A934207D07B68474A66
:10272C00934201D1022304E0032302E0012300E0E1
:10273C0000237A6A02F0030292009340FA68134372
:10274C00FB603B497B6A9B080233FA6841F8232003
:10275C003B685B6803F48013002B06D0384B9A68F7
:10276C003749BB6913438B6006E0354B9A68BB69EC
:10277C00DB43334913408B603B685B6803F4001305
:10278C00002B06D02E4BDA682D49BB691343CB6066
:10279C0006E02B4BDA68BB69DB4329491340CB605D
:1027AC003B685B6803F40033002B06D0244B5A685B
:1027BC002349BB6913434B6006E0214B5A68BB6944
:1027CC00DB431F4913404B603B685B6803F4803369
:1027DC00002B06D01A4B1A681949BB6913430B60BE
:1027EC0006E0174B1A68BB69DB43154913400B60B5
:1027FC007B6A01337B623B681A687B6A22FA03F3BB
:10280C00002B7FF4AFAE00BF00BF2C37BD4680BCA1
:10281C00704700BF00003210000031100000221081
:10282C0000002110000012100000111000100240D6
:10283C000000014000080140000C01400010014064
:10284C000004014080B485B000AF78600B467B80FB
:10285C007B689A687B881340002B02D00123FB73A2
:10286C0001E00023FB73FB7B18461437BD4680BC8C
:10287C00704780B483B000AF78600B467B80134602
:10288C007B707B78002B03D07A887B681A6103E01D
:10289C007B881A047B681A6100BF0C37BD4680BC6C
:1028AC00704780B485B000AF78600B467B807B6846
:1028BC00DB68FB607A88FB6813401A04FB68D94319
:1028CC007B880B401A437B681A6100BF1437BD46E6
:1028DC0080BC704780B586B000AF78607B68002BF9
:1028EC0001D101236CE27B681B6803F00103002B10
:1028FC0000F08780924B5B6803F00C03042B0CD028
:10290C008F4B5B6803F00C03082B12D18C4B5B686C
:10291C0003F48033B3F5803F0BD1894B1B6803F470
:10292C000033002B6CD07B685B68002B68D10123D3
:10293C0046E27B685B68B3F5803F06D1804B1B6831
:10294C007F4A43F4803313602EE07B685B68002B76
:10295C000CD17B4B1B687A4A23F480331360784B81
:10296C001B68774A23F4802313601DE07B685B6847
:10297C00B3F5A02F0CD1724B1B68714A43F4802322
:10298C0013606F4B1B686E4A43F4803313600BE08B
:10299C006B4B1B686A4A23F480331360684B1B68CB
:1029AC00674A23F4802313607B685B68002B13D089
:1029BC00FFF7B6FC386108E0FFF7B2FC02463B6952
:1029CC00D31A642B01D90323FAE15D4B1B6803F482
:1029DC000033002BF0D014E0FFF7A2FC386108E0C4
:1029EC00FFF79EFC02463B69D31A642B01D90323E3
:1029FC00E6E1534B1B6803F40033002BF0D100E0ED
:102A0C0000BF7B681B6803F00203002B63D04C4BA8
:102A1C005B6803F00C03002B0BD0494B5B6803F095
:102A2C000C03082B1CD1464B5B6803F48033002B42
:102A3C0016D1434B1B6803F00203002B05D07B68B7
:102A4C001B69012B01D00123BAE13D4B1B6823F01C
:102A5C00F8027B685B69DB00394913430B603AE091
:102A6C007B681B69002B20D0364B01221A60FFF7C4
:102A7C0057FC386108E0FFF753FC02463B69D31A58
:102A8C00022B01D903239BE12D4B1B6803F002039E
:102A9C00002BF0D02A4B1B6823F0F8027B685B6993
:102AAC00DB00274913430B6015E0264B00221A600C
:102ABC00FFF736FC386108E0FFF732FC02463B6951
:102ACC00D31A022B01D903237AE11D4B1B6803F0A7
:102ADC000203002BF0D17B681B6803F00803002B6A
:102AEC003AD07B689B69002B19D0174B01221A60D6
:102AFC00FFF716FC386108E0FFF712FC02463B6951
:102B0C00D31A022B01D903235AE10D4B5B6A03F054
:102B1C000203002BF0D0012000F09AFA1CE00A4BC3
:102B2C0000221A60FFF7FCFB38610FE0FFF7F8FB9F
:102B3C0002463B69D31A022B08D9032340E100BF9C
:102B4C000010024000004242800442429E4B5B6AED
:102B5C0003F00203002BE9D17B681B6803F004032C
:102B6C00002B00F0A6800023FB75974BDB6903F06C
:102B7C008053002B0DD1944BDB69934A43F0805367
:102B8C00D361914BDB6903F08053BB60BB680123BD
:102B9C00FB758E4B1B6803F48073002B18D18B4B89
:102BAC001B688A4A43F480731360FFF7B9FB3861E2
:102BBC0008E0FFF7B5FB02463B69D31A642B01D939
:102BCC000323FDE0814B1B6803F48073002BF0D0D2
:102BDC007B68DB68012B06D17B4B1B6A7A4A43F07E
:102BEC00010313622DE07B68DB68002B0CD1764B64
:102BFC001B6A754A23F001031362734B1B6A724AFA
:102C0C0023F0040313621CE07B68DB68052B0CD1FA
:102C1C006D4B1B6A6C4A43F0040313626A4B1B6ACC
:102C2C00694A43F0010313620BE0674B1B6A664A67
:102C3C0023F001031362644B1B6A634A23F0040301
:102C4C0013627B68DB68002B15D0FFF769FB3861DA
:102C5C000AE0FFF765FB02463B69D31A41F2883262
:102C6C00934201D90323ABE0574B1B6A03F00203D9
:102C7C00002BEED014E0FFF753FB38610AE0FFF7AE
:102C8C004FFB02463B69D31A41F28832934201D979
:102C9C00032395E04C4B1B6A03F00203002BEED18F
:102CAC00FB7D012B05D1484BDB69474A23F0805350
:102CBC00D3617B68DB69002B00F08180424B5B6841
:102CCC0003F00C03082B61D07B68DB69022B46D127
:102CDC003F4B00221A60FFF723FB386108E0FFF737
:102CEC001FFB02463B69D31A022B01D9032367E071
:102CFC00354B1B6803F00073002BF0D17B681B6A0B
:102D0C00B3F5803F08D1304B5B6823F400327B680D
:102D1C009B682D4913434B602B4B5B6823F4741257
:102D2C007B68196A7B685B6A0B43274913434B60CA
:102D3C00274B01221A60FFF7F3FA386108E0FFF71E
:102D4C00EFFA02463B69D31A022B01D9032337E071
:102D5C001D4B1B6803F00073002BF0D02FE01C4BB5
:102D6C0000221A60FFF7DCFA386108E0FFF7D8FAA6
:102D7C0002463B69D31A022B01D9032320E0124BE4
:102D8C001B6803F00073002BF0D118E07B68DB6943
:102D9C00012B01D1012313E00B4B5B68FB60FB683B
:102DAC0003F480327B681B6A9A4206D1FB6803F4F9
:102DBC0070127B685B6A9A4201D0012300E0002309
:102DCC0018461837BD4680BD001002400070004008
:102DDC006000424280B584B000AF786039607B6897
:102DEC00002B01D10123D0E06A4B1B6803F00703D1
:102DFC003A689A4210D9674B1B6823F00702654961
:102E0C003B6813430B60634B1B6803F007033A6882
:102E1C009A4201D00123B8E07B681B6803F00203DF
:102E2C00002B20D07B681B6803F00403002B05D01B
:102E3C00594B5B68584A43F4E06353607B681B68EA
:102E4C0003F00803002B05D0534B5B68524A43F444
:102E5C0060535360504B5B6823F0F0027B689B68B7
:102E6C004D4913434B607B681B6803F00103002B37
:102E7C0040D07B685B68012B07D1474B1B6803F480
:102E8C000033002B15D101237FE07B685B68022B9C
:102E9C0007D1414B1B6803F00073002B09D10123B0
:102EAC0073E03D4B1B6803F00203002B01D101239F
:102EBC006BE0394B5B6823F003027B685B68364937
:102ECC0013434B60FFF72CFAF8600AE0FFF728FA7F
:102EDC000246FB68D31A41F28832934201D903238C
:102EEC0053E02D4B5B6803F00C027B685B689B0026
:102EFC009A42EBD1274B1B6803F007033A689A42BE
:102F0C0010D2244B1B6823F0070222493B68134361
:102F1C000B60204B1B6803F007033A689A4201D000
:102F2C00012332E07B681B6803F00403002B08D0FC
:102F3C00194B5B6823F4E0627B68DB68164913432A
:102F4C004B607B681B6803F00803002B09D0124B05
:102F5C005B6823F460527B681B69DB000E491343EA
:102F6C004B6000F021F802460B4B5B681B0903F029
:102F7C000F030A49CB5C22FA03F3094A1360094B8D
:102F8C001B681846FFF78AF9002318461037BD4610
:102F9C0080BD00BF0020024000100240C038000875
:102FAC00740000207800002080B487B000AF0023AC
:102FBC00FB600023BB6000237B6100237B6000234C
:102FCC003B611E4B5B68FB60FB6803F00C03042B3E
:102FDC0002D0082B03D027E0194B3B6127E0FB689C
:102FEC009B0C03F00F03174AD35C7B60FB6803F464
:102FFC008033002B10D0114B5B685B0C03F001038A
:10300C00114AD35CBB607B680D4A02FB03F2BB68C0
:10301C00B2FBF3F37B6104E07B680C4A02FB03F325
:10302C007B617B693B6102E0054B3B6100BF3B6907
:10303C0018461C37BD4680BC704700BF00100240CC
:10304C0000127A00D0380008E038000800093D0072
:10305C0080B485B000AF78600A4B1B680A4AA2FBAB
:10306C0003235B0A7A6802FB03F3FB6000BFFB6877
:10307C005A1EFA60002BF9D100BF00BF1437BD46B1
:10308C0080BC704774000020D34D621080B582B0B4
:10309C0000AF78607B68002B01D1012341E07B6895
:1030AC0093F83D30DBB2002B06D17B68002283F80D
:1030BC003C207868FFF75AF87B68022283F83D20A1
:1030CC007B681A687B6804331946104600F056FA80
:1030DC007B68012283F846207B68012283F83E201E
:1030EC007B68012283F83F207B68012283F8402013
:1030FC007B68012283F841207B68012283F84220FF
:10310C007B68012283F843207B68012283F84420EA
:10311C007B68012283F845207B68012283F83D20DF
:10312C00002318460837BD4680BD000080B485B02A
:10313C0000AF78607B6893F83D30DBB2012B01D097
:10314C00012335E07B68022283F83D207B681B68F5
:10315C00DA687B681B6842F00102DA607B681B68E6
:10316C00164A934209D07B681B68B3F1804F04D098
:10317C007B681B68124A934211D17B681B689B6861
:10318C0003F00703FB60FB68062B10D07B681B6801
:10319C001A687B681B6842F001021A6007E07B68C2
:1031AC001B681A687B681B6842F001021A600023D6
:1031BC0018461437BD4680BC704700BF002C014038
:1031CC000004004080B584B000AF78607B681B6859
:1031DC00DB68FB607B681B681B69BB60BB6803F02A
:1031EC000203002B20D0FB6803F00203002B1BD042
:1031FC007B681B686FF002021A617B6801221A77E8
:10320C007B681B689B6903F00303002B03D0786871
:10321C0000F098F905E0786800F08BF9786800F018
:10322C009AF97B6800221A77BB6803F00403002B21
:10323C0020D0FB6803F00403002B1BD07B681B68B9
:10324C006FF004021A617B6802221A777B681B6894
:10325C009B6903F44073002B03D0786800F072F97B
:10326C0005E0786800F065F9786800F074F97B681F
:10327C0000221A77BB6803F00803002B20D0FB68F0
:10328C0003F00803002B1BD07B681B686FF008024F
:10329C001A617B6804221A777B681B68DB6903F070
:1032AC000303002B03D0786800F04CF905E0786834
:1032BC0000F03FF9786800F04EF97B6800221A772D
:1032CC00BB6803F01003002B20D0FB6803F0100345
:1032DC00002B1BD07B681B686FF010021A617B6897
:1032EC0008221A777B681B68DB6903F44073002B98
:1032FC0003D0786800F026F905E0786800F019F939
:10330C00786800F028F97B6800221A77BB6803F014
:10331C000103002B0CD0FB6803F00103002B07D03A
:10332C007B681B686FF001021A617868FEF762FD1A
:10333C00BB6803F08003002B0CD0FB6803F0800308
:10334C00002B07D07B681B686FF080021A617868CD
:10335C0000F06FFABB6803F04003002B0CD0FB6845
:10336C0003F04003002B07D07B681B686FF0400212
:10337C001A61786800F0F8F8BB6803F02003002BA2
:10338C000CD0FB6803F02003002B07D07B681B6874
:10339C006FF020021A61786800F042FA00BF103713
:1033AC00BD4680BD80B584B000AF78603960002325
:1033BC00FB737B6893F83C30012B01D10223B4E002
:1033CC007B68012283F83C207B68022283F83D2035
:1033DC007B681B689B68BB60BB6823F07703BB6092
:1033EC00BB6823F47F43BB607B681B68BA689A6038
:1033FC003B681B68B3F5005F3ED0B3F5005F00F28D
:10340C008780B3F5805F00F08680B3F5805F7FD84E
:10341C00702B1AD0702B7BD8602B50D0602B77D8A8
:10342C00502B3CD0502B73D8402B58D0402B6FD8FE
:10343C00302B64D0302B6BD8202B60D0202B67D84E
:10344C00002B5CD0102B5AD062E07B6818683B686C
:10345C0099683B685A683B68DB6800F06AF97B68DE
:10346C001B689B68BB60BB6843F07703BB607B68E1
:10347C001B68BA689A604FE07B6818683B6899686B
:10348C003B685A683B68DB6800F053F97B681B6843
:10349C009A687B681B6842F480429A603CE07B68C7
:1034AC0018683B6859683B68DB681A4600F0CAF834
:1034BC007B681B685021184600F021F92CE07B68D2
:1034CC0018683B6859683B68DB681A4600F0E8F8F6
:1034DC007B681B686021184600F011F91CE07B68C2
:1034EC0018683B6859683B68DB681A4600F0AAF814
:1034FC007B681B684021184600F001F90CE07B68E2
:10350C001A683B681B681946104600F0F8F803E08F
:10351C000123FB7300E000BF7B68012283F83D2090
:10352C007B68002283F83C20FB7B18461037BD4695
:10353C0080BD80B483B000AF786000BF0C37BD464F
:10354C0080BC704780B483B000AF786000BF0C378C
:10355C00BD4680BC704780B483B000AF786000BFBC
:10356C000C37BD4680BC704780B483B000AF786028
:10357C0000BF0C37BD4680BC7047000080B485B0DE
:10358C0000AF786039607B681B68FB607B682B4AF6
:10359C00934207D07B68B3F1804F03D07B68284AF5
:1035AC00934208D1FB6823F07003FB603B685B68B7
:1035BC00FA681343FB607B68204A934207D07B6810
:1035CC00B3F1804F03D07B681D4A934208D1FB684E
:1035DC0023F44073FB603B68DB68FA681343FB60C1
:1035EC00FB6823F080023B685B691343FB607B68DC
:1035FC00FA681A603B689A687B68DA623B681A68FA
:10360C007B689A627B680D4A934203D13B681A69C6
:10361C007B681A637B6801225A617B681B6903F023
:10362C000103002B05D07B681B6923F001027B682A
:10363C001A6100BF1437BD4680BC7047002C014096
:10364C000004004080B487B000AFF860B9607A60C5
:10365C00FB681B6A7B61FB681B6A23F00102FB6839
:10366C001A62FB689B693B613B6923F0F0033B6189
:10367C007B681B013A6913433B617B6923F00A03A6
:10368C007B617A69BB6813437B61FB683A699A6119
:10369C00FB687A691A6200BF1C37BD4680BC704754
:1036AC0080B487B000AFF860B9607A60FB681B6AC1
:1036BC007B61FB681B6A23F01002FB681A62FB68D3
:1036CC009B693B613B6923F470433B617B681B0343
:1036DC003A6913433B617B6923F0A0037B61BB68B0
:1036EC001B017A6913437B61FB683A699A61FB6839
:1036FC007A691A6200BF1C37BD4680BC704780B423
:10370C0085B000AF786039607B689B68FB60FB68B4
:10371C0023F07003FB603A68FB68134343F0070324
:10372C00FB607B68FA689A6000BF1437BD4680BCAA
:10373C00704780B487B000AFF860B9607A603B60C6
:10374C00FB689B687B617B6923F47F437B613B68EF
:10375C001A027B681A43BB6813437A6913437B6173
:10376C00FB687A699A6000BF1C37BD4680BC704705
:10377C0080B485B000AF786039607B6893F83C30DA
:10378C00012B01D1022341E07B68012283F83C200C
:10379C007B68022283F83D207B681B685B68FB60BA
:1037AC007B681B689B68BB60FB6823F07003FB6045
:1037BC003B681B68FA681343FB607B681B68FA68FC
:1037CC005A607B681B68144A934209D07B681B685B
:1037DC00B3F1804F04D07B681B68104A93420CD124
:1037EC00BB6823F08003BB603B685B68BA6813431B
:1037FC00BB607B681B68BA689A607B68012283F89F
:10380C003D207B68002283F83C20002318461437A7
:10381C00BD4680BC704700BF002C01400004004036
:10382C0080B483B000AF786000BF0C37BD4680BC5D
:10383C00704780B483B000AF786000BF0C37BD46D2
:10384C0080BC704770B500260C4D0D4C641BA41049
:10385C00A64209D100F022F800260A4D0A4C641B3E
:10386C00A410A64205D170BD55F8043B984701360B
:10387C00EEE755F8043B98470136F2E7E4380008C8
:10388C00E4380008E4380008E8380008034602442D
:10389C00934200D1704703F8011BF9E7F8B500BF5C
:1038AC00F8BC08BC9E467047F8B500BFF8BC08BC15
:0438BC009E4670476D
:1038C00000000000000000000102030406070809D0
:1038D00002030405060708090A0B0C0D0E0F101051
:0438E00001020000E1
:0438E40031010008A6
:0438E8000D010008C6
:1038EC0001000000010000000100000001000000C8
:1038FC0001000000010000000100000001000000B8
:10390C0001000000010000000100000001000000A7
:10391C000100000001000000010000000100000097
:10392C002C01000032000000320000002C010000CD
:10393C00050000000200000003000000050000006C
:10394C000200000003000000010000000300000062
:10395C001400000000127A001000000001000000AA
:04000005080022319C
:00000001FF
